:020000040800F2
:100000005021002009010008A1430008A343000873
:10001000A7430008AB430008AF43000800000000FE
:10002000000000000000000000000000B5430008D0
:10003000B343000800000000B7430008B9430008BC
:100040002301000823010008230100082301000800
:1000500023010008230100082301000823010008F0
:100060002301000823010008B368000823010008E9
:1000700023010008230100082301000823010008D0
:1000800023010008230100082301000823010008C0
:1000900023010008230100082301000823010008B0
:1000A000230100082301000863540008230100080D
:1000B000D7530008E7650008BF5A0008230100086D
:1000C0002301000823010008230100082301000880
:1000D00023010008915900082301000823010008AA
:1000E00023010008C14B0008230100082301000878
:1000F00023010008DFF80CD00AF076FF0048004723
:10010000C93F0008502100200648804706480047A4
:10011000FEE7FEE7FEE7FEE7FEE7FEE7FEE7FEE7B7
:10012000FEE7FEE74F420008F500000832490143B0
:10013000324A1160704770B5002100230F22C47845
:100140001CB32E4C246804F4E064C4F5E064C4F3EA
:100150000721C1F10404E3B20A4144789C40E1B2B2
:100160008478144021430C07210E254C05786155F5
:10017000047804F01F050124AC4005786D11AD0032
:1001800005F1E025C5F8004109E0047804F01F05F9
:100190000124AC401B4D0678761145F8264070BD11
:1001A000194A0A400243154B1B1F1A60704739B1A8
:1001B000124A121D12680243104B1B1D1A6006E002
:1001C0000E4A121D126882430C4B1B1D1A607047A9
:1001D000042808D14FF0E021096941F004014FF0F3
:1001E000E022116107E04FF0E021096921F00401EC
:1001F0004FF0E022116170470000FA050CED00E0BD
:1002000000E400E080E100E080FFFF1F10B504463D
:10021000FE48844207D10121401501F0B1FD0021C3
:10022000601501F0ADFD10BD30B502460020002381
:100230005068F74C20400D790C6844EA05242043AF
:1002400050609068F34C2040D1E903542C438D68F2
:100250002C434D7944EA450420439060106B20F014
:10026000F8700C7D641EE4B2234340EA035010632F
:1002700030BD002101600171417181604FF040711A
:10028000C160002101610121017570470146002014
:10029000E14A106820F440300A681043DE4A1060DA
:1002A000704700210160704721B1826842F001026D
:1002B000826003E0826822F001028260704721B10F
:1002C000826842F00402826003E0826822F0040245
:1002D000826070471AB143680B43436002E0436891
:1002E0008B43436070470A460021816821F0F0018A
:1002F0001143816070470A4600214168C74B19408D
:100300001143416070478162C26270470A46002112
:10031000416821F01F0111434160704730B1BE496F
:10032000096841F40001BC4A116005E0BA49096856
:1003300021F40001B84A11607047F0B504460D463B
:10034000002000211D2D11DDE06DA5F11E0606EB3C
:100350004607072606FA07F18843A5F11E0606EBB5
:10036000460603FA06F10843E06534E0132D11DD7B
:10037000E068A5F1140606EB4607072606FA07F122
:100380008843A5F1140606EB460603FA06F1084376
:10039000E06020E0092D11DD2069A5F10A0606EBD9
:1003A0004607072606FA07F18843A5F10A0606EB79
:1003B000460603FA06F1084320610CE0606905EB8C
:1003C0004507072606FA07F1884305EB450603FAB9
:1003D00006F108436061072A0FDA206C561E06EB0F
:1003E00086071F2606FA07F18843561E06EB860687
:1003F00005FA06F1084320644AE00D2A0FDAE06BA3
:10040000D61F06EB86071F2606FA07F18843D61F7C
:1004100006EB860605FA06F10843E06338E0132A86
:1004200011DAA06BA2F10D0606EB86071F2606FA6D
:1004300007F18843A2F10D0606EB860605FA06F1E0
:100440000843A06324E0192A11DA606BA2F11306B5
:1004500006EB86071F2606FA07F18843A2F113066A
:1004600006EB860605FA06F10843606310E0206B90
:10047000A2F1190606EB86071F2606FA07F1884344
:10048000A2F1190606EB860605FA06F10843206379
:10049000F0BD816841F080418160704701460020D5
:1004A0008A6802F080420AB1012000E00020704713
:1004B00021B1826842F48062826003E0826822F4A3
:1004C00080628260704721B1826842F002028260DD
:1004D00003E0826822F002028260704710B50A468B
:1004E00000210023416821F46041531E41EA433159
:1004F000416010BD21B1426842F40062426003E0F5
:10050000426822F40062426070470146886D80B202
:10051000704721B1826842F48072826003E0826891
:1005200022F480728260704721B1826842F40072C6
:10053000826003E0826822F4007282607047F0B546
:10054000044615460020002200261D2911DDE06D1D
:10055000A1F11E0707EB470C072707FA0CF290439F
:10056000A1F11E0707EB470703FA07F21043E06506
:1005700034E0132911DDE068A1F1140707EB470C03
:10058000072707FA0CF29043A1F1140707EB47077E
:1005900003FA07F21043E06020E0092911DD206929
:1005A000A1F10A0707EB470C072707FA0CF2904363
:1005B000A1F10A0707EB470703FA07F2104320618E
:1005C0000CE0606901EB410C072707FA0CF290433D
:1005D00001EB410703FA07F210436061606CC0F35E
:1005E0000156EF1C06F1010CA7EB0C0707EB870C7B
:1005F0001F2707FA0CF29043EF1C06F1010CA7EB42
:100600000C0707EB870701FA07F209E00024014015
:10061000FFFEFFFCFDF7FFC004270140FFFD3FFF89
:1006200010436064F0BD10B50A4600210023416C00
:1006300021F44011531E41EA0351416410BD08B535
:10064000002300930090009B0B440093009B1A60D2
:1006500008BD0A460021816821F4702111438160A0
:1006600070470A460021816821F4401111438160DE
:100670007047816841F48001816070470146002025
:100680008A6802F480020AB1012000E0002070476D
:1006900021B1426842F48062426003E0426822F481
:1006A00080624260704721B1426842F480524260E9
:1006B00003E0426822F480524260704708B5024667
:1006C00000200090009201F13000009B184400903F
:1006D0000098006880B208BD10B50B460021D9B261
:1006E000012404FA01F11AB144680C43446002E0A9
:1006F00044688C43446010BD0246002013680B40E0
:100700000BB1012000E000207047CA43026070472F
:1007100070B502460020002300240B0A556801260C
:100720008E4005EA060415681D4015B10CB1012084
:1007300000E0002070BD00220A12D343036070471E
:1007400001684FF6FE7211400160002101604160B6
:100750008160C1608D49884208D18C490839496857
:1007600041F00F01894A083A51608AE08749143103
:10077000884208D185490839496841F0F001834A27
:10078000083A51607DE081492831884208D17F498B
:100790000839496841F470617C4A083A516070E058
:1007A0007A493C31884208D178490839496841F48E
:1007B0007041764A083A516063E07449503188428A
:1007C00008D172490839496841F470216F4A083AE2
:1007D000516056E06D496431884208D16B4908394F
:1007E000496841F47001694A083A516049E0674933
:1007F0007831884208D165490839496841F070610B
:10080000624A083A51603CE06149884206D1011FC2
:10081000096841F00F01021F116032E05C49143198
:10082000884208D15A49091F096841F0F001584A25
:10083000121F116025E056492831884208D15449D9
:10084000091F096841F47061514A121F116018E0D4
:100850004F493C31884208D14D49091F096841F48C
:1008600070414B4A121F11600BE0494950318842D8
:1008700007D14749091F096841F47021444A121FF2
:100880001160704710B50022026847F6F0739A4372
:100890000C6A8B6823430C6923434C6923438C699E
:1008A0002343CC6923434C6A23438C6A23431A4372
:1008B0000260CB6843600B6883604B68C36010BD07
:1008C0000021016041608160C1600161416181611D
:1008D000C161016241628162704721B1026842F0E8
:1008E0000102026004E002684FF6FE731A400260E3
:1008F0007047416070470146486880B270471AB13E
:1009000003680B43036002E003688B430360704796
:1009100001460020002201F080531BB91B4B083B0D
:100920001A6802E01A4B083B1A6802EA01030BB18D
:10093000012000E00020704700F0805119B91349F0
:100940000839486002E01249091F086070470146F3
:100950000020002201F080531BB90C4B083B1A68A1
:1009600002E00B4B083B1A6802EA01030BB10120BD
:1009700000E00020704700F0805119B903490839A0
:10098000486002E00249091F0860704708600240A1
:1009900008640240002044490860091D0860091DE0
:1009A0000860091D08606FF07F403F4914310860FE
:1009B000704700213C498279002A3AD00A461268E1
:1009C00003689A430B461A600A1D126803689A432B
:1009D0000B1D1A60027911440A6803681A430A6001
:1009E000314A0832126803689A432F4B08331A6061
:1009F0001A1D126803689A432B4B0C331A60427914
:100A0000102A0ED11A1F126803681A43264B0833A6
:100A10001A601A1D126803681A43234B0C331A60BC
:100A20000DE02149427911440A6803681A430A60BB
:100A300005E0027911440A6803689A430A60704726
:100A40000021016001710C21417100218171704709
:100A50001549103109680143134A1032116070477B
:100A600001460020104A143212680A400AB10120DF
:100A700000E0002070470C491431086070470146BF
:100A800000200022084B1B6803EA0102064B1433C6
:100A90001B680B4013B10AB1012000E00020704731
:100AA00001491431086070470004014001460020EC
:100AB000FE4A106820F0010008431060704730B112
:100AC000FA49096841F00201F84A116005E0F74966
:100AD000096821F00201F54A1160704730B1F3490D
:100AE000096841F00401F14A116005E0EF49096825
:100AF00021F00401ED4A1160704730B1EB490968FB
:100B000041F00801E94A116005E0E849096821F06F
:100B10000801E64A11607047E448001D006800F0D3
:100B2000010028B1E248E1490C310860E148086061
:100B3000704700B5DD48001D006800F0020038B1C4
:100B4000FFF7EAFFDC48D94910310860DB4808604C
:100B500000BDD648001D006840F00200D349091DC1
:100B6000086070470420D1491831096801F001017B
:100B700009B1012010E0CD491831096801F48071F4
:100B800009B1022008E0C9491831096801F4F0519F
:100B900009B1032000E00420704708B50246042094
:100BA0000090FFF7DFFF009003E0FFF7DBFF00900E
:100BB000521E9DF80000012801D1002AF5D10AB982
:100BC000052000909DF8000008BD30B504460425BE
:100BD0006803FFF7E2FF0546042D1FD1B348001D4F
:100BE000006840F40070B149091D086008460068BB
:100BF00040F008000860002020606803FFF7CDFF88
:100C00000546AA48001D006820F00800A749091DF4
:100C100008600846006820F400700860284630BD6F
:100C200070B504460D4604267003FFF7B6FF06466E
:100C3000042E04D125604003FFF7AFFF064630467F
:100C400070BD9A48001D006840F001009749091DD9
:100C50000860704740B19549091D096841F48071E9
:100C6000924A121D116007E09049091D096821F49C
:100C700080718E4A121D1160704730B504460425FC
:100C80006803FFF78AFF0546042D01D1002020707C
:100C9000284630BD30B5044604256803FFF77DFFC4
:100CA0000546042D01D100202080284630BD30B5F6
:100CB000044604256803FFF770FF0546042D01D1A3
:100CC00000202060284630BD70B504460D4604263D
:100CD0007003FFF762FF0646042E0CD17348001D17
:100CE000006820F480707149091D08602560700358
:100CF000FFF753FF0646304670BD2DE9F04104462C
:100D00000D46042600274FF000087003FFF745FF4B
:100D10000646042E24D16548001D006820F480702A
:100D20006249091D08602DB125707003FFF735FF7A
:100D3000064615E024F00308D8F80070A007C10E9D
:100D4000FF2000FA01F827EA080724F00300FFF764
:100D5000AEFF064624F003003946FFF7B5FF06460E
:100D60003046BDE8F0812DE9F04104460D460426E9
:100D700000274FF000087003FFF70FFF0646042E10
:100D800032D14A48001D006820F480704749091D8F
:100D900008602DB125807003FFF7FFFE064623E0B3
:100DA00004F00300032817D024F00308D8F80070DB
:100DB000A007C10E4FF6FF7000FA01F827EA0807F6
:100DC00024F00300FFF773FF064624F003003946C2
:100DD000FFF77AFF064607E000212046FFF78DFF68
:100DE0000021601CFFF789FF3046BDE8F0812DE946
:100DF000F04104460D46042600274FF0000870031A
:100E0000FFF7CBFE0646042E1CD12DB12570400302
:100E1000FFF7C3FE064615E024F00308D8F800707B
:100E2000A007C10EFF2000FA01F827EA080724F006
:100E30000300FFF73CFF064624F003003946FFF7A6
:100E400043FF06463046BDE8F0812DE9F0410446F7
:100E50000D46042600274FF000087003FFF79DFEA3
:100E60000646042E34D12DB125804003FFF795FEB0
:100E700006462DE004F00300032821D024F00308E7
:100E8000D8F80070A007C10E4FF6FF7000FA01F805
:100E900027EA080724F00300FFF709FF064624F0BD
:100EA00003003946FFF710FF064611E0003C024000
:100EB000EFCDAB8905040302BFAE9D8C161514134C
:100EC00000212046FFF719FF0021601CFFF715FFE6
:100ED0003046BDE8F08170B504460D460426700327
:100EE000FFF75BFE0646042E04D125604003FFF7A2
:100EF00054FE0646304670BD00B5DC48006800F080
:100F0000040038B1FFF708FED948D849103108600D
:100F1000D848086000BDD548006840F00400D349B7
:100F200008607047D148006840F48020CF490860CD
:100F300070472DE9F04704460F46002500264FF084
:100F40000408A946AA464FF40040FFF726FE804653
:100F5000B8F1040F31D1AFB1C7488068204385B2E2
:100F6000C548C06840EA144086B2E84345EA0049F3
:100F7000C148C0F80890F04346EA004ABE48C0F8AD
:100F80000CA015E0BC48806880B220EA0405BA488D
:100F9000C068E14300EA1146E84345EA0049B64823
:100FA000C0F80890F04346EA004AB348C0F80CA0E5
:100FB0004FF40040FFF7F1FD80464046BDE8F08762
:100FC0002DE9F04704460F46002500264FF004089F
:100FD000A946AA464FF40040FFF7DFFD8046B8F16E
:100FE000040F31D1AFB1A4480069204385B2A248B3
:100FF000406940EA144086B2E84345EA00499E4809
:10100000C0F81090F04346EA004A9B48C0F814A08C
:1010100015E09948006980B220EA040596484069C5
:10102000E14300EA1146E84345EA00499248C0F826
:101030001090F04346EA004A8F48C0F814A04FF4DD
:101040000040FFF7AAFD80464046BDE8F0872DE945
:10105000F04704460F46002500264FF00408A94635
:10106000AA464FF40040FFF798FD8046B8F1040F00
:1010700031D1AFB180488069204385B27E48C069D4
:1010800040EA144086B2E84345EA00497A48C0F88D
:101090001890F04346EA004A7748C0F81CA015E0D3
:1010A0007548806980B220EA04057348C069E1434D
:1010B00000EA1146E84345EA00496F48C0F8189035
:1010C000F04346EA004A6C48C0F81CA04FF40040C8
:1010D000FFF763FD80464046BDE8F087F0B5044663
:1010E0000425002600276803FFF757FD0546E04367
:1010F000C6B244EA0647042D01D15F4807604FF4A9
:101100000040FFF74AFD05462846F0BD2DE9F043B3
:1011100004460D46164604274FF000084FF000091C
:10112000524818300068C0F3034944EA05003043D0
:1011300040EA0900C0434FEA004844EA0500304352
:1011400040EA090040EA08087803FFF726FD074651
:10115000042F02D14848C0F804804FF40040FFF744
:101160001CFD07463846BDE8F083F0B5044604256B
:10117000002600273D481830006800F47000070C76
:1011800044EA0700C043060444EA07000643680334
:10119000FFF703FD0546042D01D1374846604FF4A3
:1011A0000040FFF7FAFC05462846F0BDF0B50446BE
:1011B0000425002600272D4818300068C0F3064794
:1011C00044EA0700C043060444EA070006436803F4
:1011D000FFF7E3FC0546042D01D1274846604FF494
:1011E0000040FFF7DAFC05462846F0BD1F481830DE
:1011F0000068C0F3075070471C481C3000687047F7
:101200001A487C3000687047184880300068704782
:101210000020164918310968C9B2AA2901D0012055
:1012200000E000207047114818300068C0F3034008
:10123000704729B10D4A126802430C4B1A6004E052
:101240000A4A12688243094B1A607047014600201F
:10125000064A143212680A400AB1012000E0002058
:10126000704702491431086070470000043C024096
:10127000C8D9EAFB272625240000F81F10B504462C
:101280008548844208D10121084600F068FD00210C
:10129000012000F064FD52E08048844208D1012121
:1012A000022000F05CFD0021022000F058FD46E025
:1012B0007B48844208D10121042000F050FD002128
:1012C000042000F04CFD3AE07648844208D1012128
:1012D000082000F044FD0021082000F040FD2EE031
:1012E0007148844208D10121102000F038FD00210E
:1012F000102000F034FD22E06C48844208D1012126
:10130000402000F02CFD0021402000F028FD16E0D8
:101310006748844208D10121802000F020FD00218F
:10132000802000F01CFD0AE06248844207D10121C0
:10133000202000F014FD0021202000F010FD10BD41
:10134000F0B50A4600210023002400BF3DE001253E
:1013500005FA01F3156805EA03049C4234D10568D7
:101360004F000326BE40B543056015794E00B540D9
:101370000668354305601579012D02D01579022DD7
:1013800016D185684F000326BE40B5438560557968
:101390004E00B540866835438560858801268E40BD
:1013A000B5438580858896798E40B6B23543858071
:1013B000C5684F000326BE40B543C560D5794E00D1
:1013C000B540C6683543C560491C1029BFD3F0BD80
:1013D0004FF6FF7101600021017141718171C1718E
:1013E000704708B54FF480320092009A0A43009289
:1013F000009AC261C161009AC261C2690092C26969
:10140000009208BD02460020138A0B400BB1012058
:1014100000E0002070470146088A7047024600201D
:10142000938A0B400BB1012000E000207047014679
:10143000888A704701837047418370470AB10183EE
:1014400000E04183704781827047828A4A408282ED
:101450007047F0B5002300244D07ED0E02FA05F3A6
:10146000CE1000F1200555F826504E07F70E0F2636
:10147000BE40B543CF1000F1200646F82750CE10ED
:1014800000F1200555F8265045EA0304CE1000F17E
:10149000200545F82640F0BD00000240000402404F
:1014A00000080240000C02400010024000180240F8
:1014B000001C02400014024010B50446F748844264
:1014C00009D10121480500F06CFC00214FF4001007
:1014D00000F067FC08E00121880500F062FC0021B3
:1014E0004FF4800000F05DFC10BD2DE9FF4704467D
:1014F0000D460026B1460427DFF8A483A6884FF6E0
:10150000C0700640684600F053FBDDF80880E548EF
:10151000B8FBF0F01FFA80F946EA0906A680208899
:101520004FF6FE71084020800026DF492868884277
:101530000CD828684000B8FBF0F087B2042F00DA1E
:1015400004273E4309F10100208427E0E8884BF698
:10155000FF71884206D1286800EB4000B8FBF0F02C
:1015600087B209E0286800EBC00101EB0010B8FB6E
:10157000F0F087B247F48047C7F30B0008B947F093
:10158000010747F4004006434FF4967009FB00F052
:101590004FF47A7190FBF1F0401C2084A6832088E0
:1015A00040F00100208026884FF6F5300640A888DC
:1015B0006989084306432680A88929890843208130
:1015C000BDE8FF8741F288310160002181804BF640
:1015D000FF71C1800021018141814FF480418181EF
:1015E000704721B1028842F00102028004E00288C3
:1015F0004FF6FE731A400280704721B1028842F410
:101600008072028004E002884FF6FF631A40028075
:10161000704721B1028842F40072028004E002881F
:101620004FF6FF531A400280704721B1028842F4FE
:101630008062028004E002884FF6FF331A40028085
:1016400070470A46002181894FF60173194002F064
:10165000FE0319438181704721B1828942F0010262
:10166000828104E082894FF6FE731A4082817047BE
:1016700021B1028842F04002028004E002884FF665
:10168000BF731A400280704721B1028842F40042C1
:10169000028003E00288C2F30E0202807047B1F5B7
:1016A000005F04D1028842F40052028004E0028804
:1016B0004DF6FF731A400280704721B1028842F054
:1016C0001002028004E002884FF6EF731A40028095
:1016D000704721B9028842F08002028004E002884B
:1016E0004FF67F731A4002807047B1F5804F05D0E6
:1016F000828B4BF6FF731A40828303E0828B42F4A5
:1017000080428283704712B141F0010101E001F093
:10171000FE0101827047018270470146088AC0B20B
:101720007047B1F5006F04D1028842F40062028074
:1017300004E002884FF2FF731A400280704721B123
:10174000028842F48052028004E002884EF6FF7361
:101750001A4002807047B1F5006F04D1028842F44C
:101760000062028004E002884FF2FF731A40028098
:10177000704721B1028842F02002028004E0028812
:101780004FF6DF731A40028070470146088B001243
:10179000704721B1828842F40062828004E082882E
:1017A0004FF2FF731A408280704721B1828842F461
:1017B0008052828004E082884EF6FF731A40828055
:1017C000704708B502460020009000920098084437
:1017D00000900098008808BD1AB183880B4383806D
:1017E00002E083888B438380704770B502460024F3
:1017F000002500230020958A138B1B0445EA03066D
:1018000026F07F4404EA01068E4201D1012000E067
:10181000002070BD10B501460020002300228B8AF5
:101820000A8B120443EA020424F07F4010BD0CB579
:101830000246002000230193009300920B0F0193B6
:1018400021F07F41019B1BB1009B1433009303E007
:10185000090C009B18330093009B1B680B400BB1D5
:10186000012000E000200CBD002221F07F42D34384
:101870008382704730B5024600200023948801F02F
:10188000E06504EA154321F07F41948A0C4014B1CD
:101890000BB1012000E0002030BD000000540040EA
:1018A00000127A0040420F00A0860100002221F0C1
:1018B0007F42D3438382704710B50121080700F0AF
:1018C00070FA00214FF0805000F06BFA10BD4D49C6
:1018D00008627047014600204B4A106820F0E00083
:1018E00008431060704747490861704708B50022F7
:1018F0000092444AA03202440092009A116008BD4E
:101900004049886270473F4948627047014600205D
:101910003D4A106820F4C050084320F00C023A4BB6
:101920001A60704758B13849096841F00101364AD8
:1019300011601146096841F4804111600AE03249A2
:10194000096821F48041304A11601146096821F08C
:1019500001011160704710B5024600202A4B18683B
:1019600020F0030010431860284B1B6823F0040389
:10197000264C2360012901D130BF00E020BF10BDFB
:1019800010B502460020204B186820F003001043D9
:1019900018601E4B1B6843F004031C4C2360012994
:1019A00001D130BF00E020BF184B1B6823F00403B7
:1019B000164C236010BD1448006840F00400124922
:1019C00008600846006840F0020008600F480068A0
:1019D00040F004000D49086000BF00BF30BF7047F1
:1019E00001460020084A52680A400AB1012000E07E
:1019F000002070470449096841EA8001024A1160E9
:101A00007047000000000E420070004010ED00E042
:101A1000F948006840F48070F7490860F6480830DB
:101A20000068F6490840F44908310860F248006847
:101A3000F3490840F04908600846006820F4802017
:101A40000860ED480830006820F47D00EA4908315C
:101A500008600020091D086070470021E64A921CBA
:101A6000117011460870704710B50146002200231E
:101A700000204A11012A02D1DF4C236802E0DE4C2B
:101A80003434236801F01F02012494401C400CB13F
:101A9000012000E0002010BD38B500200090002497
:101AA000002500BF3120FFF7DFFF05460098401CEE
:101AB00000900098B0F5A06F01D0002DF2D0312039
:101AC000FFF7D2FF08B1012400E00024204638BD12
:101AD000C949C91D0870704701460020C64A121D39
:101AE000106820F46040084310607047C5490862E0
:101AF000704701460020C04A121D106820F4F850BB
:101B000040EA012010607047BE490860704700211C
:101B1000B94A35321170114608707047BA490860E9
:101B2000704710B541EA02030343B34C0A342370F3
:101B300010BDB44908667047B24908677047B2499A
:101B40002C310860704740EA0102AB4B0B331A702E
:101B5000704701460020A84A0832106820F00300B0
:101B6000084310607047A4480830006800F00C007B
:101B7000704701460020A04A0832106820F0F000AB
:101B8000084310607047014600209B4A08321068E5
:101B900020F4E06008431060704701460020964A38
:101BA0000832106820F4605040EAC10010607047AD
:101BB000F0B50021002200230026002400258E4FCE
:101BC00008373F6807F00C0131B1042912D0082909
:101BD00013D00C2937D113E0874F3F1D3F68C7F35F
:101BE00042356F1C4FF0010C0CFA07FC4FEACC3762
:101BF000076036E0854F076033E0854F076030E0CF
:101C00007D4F08373F6807F470127B4F08373F68F5
:101C100007F440037F4F07EB92473A78012707EB21
:101C20009353754F08373F6807F480362EB9774FC6
:101C30005743B7FBF3F7076004E0754F5743B7FB13
:101C4000F3F707600DE06C4F3F1D3F68C7F3423567
:101C50006F1C4FF0010C0CFA07FC4FEACC37076001
:101C600000BF00BF644F08373F6807F0F001090963
:101C7000694F7C5C0768E74047605F4F08373F6803
:101C800007F4E061090A644F7C5C4768E7408760BD
:101C9000594F08373F6807F46051C90A5E4F7C5CB2
:101CA0004768E740C760F0BD002100F44032B2F55C
:101CB000403F08D1504A116821F0C04100F0C042B5
:101CC00011434D4A11604C4A3432126822F44032BA
:101CD000494B34331A601A46126800F440331A43F1
:101CE000454B34331A607047474958310860704794
:101CF00045495C310860704739B13F4A1C3212686F
:101D000002433D4B1C331A6006E03B4A1C3212680A
:101D10008243394B1C331A60704739B1364A20323E
:101D200012680243344B20331A6006E0324A2032F4
:101D300012688243304B20331A60704739B12E4A03
:101D40002432126802432C4B24331A6006E02A4ADC
:101D5000243212688243284B24331A60704739B109
:101D6000254A103212680243234B10331A6006E0F2
:101D7000214A1032126882431F4B10331A60704799
:101D800039B11D4A1432126802431B4B14331A60D6
:101D900006E0194A143212688243174B14331A6052
:101DA000704739B1144A183212680243124B183383
:101DB0001A6006E0104A1832126882430E4B18333C
:101DC0001A60704739B10C4A2832126802430A4B34
:101DD00028331A6006E0084A283212688243064B0C
:101DE00028331A607047C9B1034A2C321268024383
:101DF000014B2C331A6016E0003802400CC0FF88FB
:101E0000FEFFFEEE00004742800647420024F40039
:101E100000127A0000000020090000201F4A12680A
:101E200082431E4B1A60704739B11C4A121D12685A
:101E300002431A4B1B1D1A6006E0184A121D126855
:101E40008243164B1B1D1A60704739B1134A1F3A63
:101E500012780243114B1F3B1A7006E00F4A1F3ADB
:101E6000127882430D4B1F3B1A7070470B480830A5
:101E7000006840F0807009490831086070470146E9
:101E80000020064A203A12680A400AB1012000E008
:101E90000020704701491E39087070472C380240F5
:101EA00008B50022009200200021CA22F94B1A60D6
:101EB00053221A60F74A183A126822F0A002F54B32
:101EC000183B1A6000BFF34A183A126802F020016A
:101ED000009A521C0092009AB2F5004F01D00029DE
:101EE000F1D0EC4A183A126802F020020AB101203F
:101EF00000E00020FF22E74B1A6008BD08B5002271
:101F0000009200200021E34A183A126802F04002D1
:101F1000E2B9421EDF4B183B1A6000BFDD4A183A97
:101F2000126802F04001009A521C0092009AB2F529
:101F3000005F01D00029F1D0D64A183A126802F0A9
:101F400040020AB1012002E0002000E0012008BDAB
:101F500038B50020009000240025CA20CD49086033
:101F600053200860FFF7CAFF00B952E00020C949BA
:101F70002439086042F20110091D0860081D00683C
:101F800000F00700091D086000BFC248183800684B
:101F900000F004040098401C00900098B0F5005F29
:101FA00001D0002CF1D0BB481838006800F00400C4
:101FB00008B900252DE0B7481C3800680020B54955
:101FC0001C3908604FF6FF70B24910390860B248FA
:101FD000091F08600020AF490C390860091D08601E
:101FE000091D0860AB4908310860AA49183108602A
:101FF000A84920310860091D0860A6491839086001
:10200000A4491C310860FFF74BFF08B9002500E028
:102010000125FF209F490860284638BD9D48183893
:10202000006820F080009B4918390860704730B57F
:1020300004460025CA209749086053200860FFF72E
:102040005DFF00B91DE093481C38006820F0400097
:1020500090491C39086008460068216808438D498A
:102060001C3908608B491439A0680860084600686C
:10207000A18840EA0140874914390860FFF7CEFF84
:102080000125FF2083490860284630BD00210160FA
:102090007F214160FF218160704718B1FF217D4A97
:1020A000116004E0CA217B4A11605321116070471E
:1020B00030B504460025CA207649086053200860E0
:1020C000FFF71CFF00B914E044B172481C380068E7
:1020D00040F010006F491C39086007E06D481C385B
:1020E000006820F010006B491C390860FFF796FF6C
:1020F0000125FF2067490860284630BDCA21654A8E
:1021000011605321116040B162491C39096841F0E6
:102110002001604A1C3A116007E05E491C390968D9
:1021200001F0DF015B4A1C3A1160FF21594A11603E
:1021300070470146002204E0501CC2B2A1F10A001F
:10214000C1B20A29F8DA100741EA10607047014667
:1021500000BF080900EB8000420001F00F001044AE
:10216000C0B270472DE9F04105460C460026002715
:1021700055B948481C38006800F0400000B102E042
:102180000020E07000BF0EE042481C38006800F0FC
:10219000400020B12078FFF7DAFF064602E0002079
:1021A000E07000BF00BF55B120780004617840EABC
:1021B0000120A1780843E17840EA014611E0207847
:1021C000FFF7B7FF4FEA00486078FFF7B2FF48EA31
:1021D0000028A078FFF7ADFF48EA0008E07848EA59
:1021E0000046CA202B49086053200860FFF786FE8E
:1021F00008B9002714E029483040264924390860EE
:10220000FFF70CFF23481C38006800F0200030B9AD
:10221000FFF746FE08B9002702E0012700E001278A
:10222000FF201C4908603846BDE8F0810021C170DC
:10223000017041708170704770B506460C460025EC
:10224000144824380068154900EA0105C5F3054023
:102250002070C5F30620607005F07F00A07005F4C3
:102260008000000CE0705EB92078FFF770FF2070EE
:102270006078FFF76CFF6070A078FFF768FFA070D0
:1022800070BD00200349091D08680249203909680A
:102290007047000024280040FF007F007F7F7F0000
:1022A0002DE9F04105460C46002600274DB960781F
:1022B00000F01000102804D1607820F010000A30DF
:1022C000607005B908E06078FFF741FF0646A07826
:1022D000FFF73DFF064600BF55B1E0780004617886
:1022E00040EA0120A1780843217840EA413611E014
:1022F000E078FFF71EFF4FEA00486078FFF719FF0C
:1023000048EA0028A078FFF714FF48EA0008207880
:1023100048EA4036CA20FE49086053200860FFF7AB
:10232000EDFD08B9002714E0FA483040F84920399B
:102330000860FFF773FEF6481C38006800F02000C4
:1023400030B9FFF7ADFD08B9002702E0012700E032
:102350000127FF20EE4908603846BDE8F0810121E1
:102360000170817041700021C170704770B50646E0
:102370000C460025E64820380068E64900EA0105D9
:10238000280CE070C5F30420607005F03F00A070D9
:10239000C5F3423020705EB9E078FFF7D8FEE070F8
:1023A0006078FFF7D4FE6070A078FFF7D0FEA070D1
:1023B00070BD2DE9F04105460E46144600276DB963
:1023C000D3481C38006800F0400000B102E0002053
:1023D000E07000BFA06800B91AE019E0CC481C38D2
:1023E000006800F0400020B12078FFF7B0FE0746FB
:1023F00002E00020E07000BFA06820B9207BFFF75A
:10240000A6FE074604E0207BFFF7A1FE074600BFBB
:1024100095B120780004617840EA0120A178084352
:10242000E17840EA0140217B40EA0160A16808436D
:10243000616840EA01071BE02078FFF77AFE4FEA67
:1024400000486078FFF775FE48EA0028A078FFF79B
:1024500070FE48EA0008E07848EA0048207BFFF771
:1024600068FE48EA0060A1680843616840EA010725
:10247000CA20A749086053200860B6F5807F03D1C1
:10248000A3480838076002E0A148001F0760FF204A
:102490009F490860BDE8F0810021C1700170417062
:1024A00081708160012101730021416070472DE935
:1024B000F04106460F4614460025B7F5807F03D14C
:1024C00093480838056802E09148001F0568C5F385
:1024D00005402070C5F30620607005F07F00A070F5
:1024E00005F48000000CE070C5F30560207305F072
:1024F0008040A06005F0803060607EB92078FFF7F2
:1025000026FE20706078FFF722FE6070A078FFF74B
:102510001EFEA070207BFFF71AFE2073BDE8F0813D
:1025200038B502460024009400230020CA24784DC8
:102530002C6053242C6041B1754C1C3C246814431E
:10254000734D1C3D2C6001201EE0714C1C3C246826
:1025500094436F4D1C3D2C6000BF6D4C183C2468AB
:1025600004EA1223009C641C0094009CB4F5005FF4
:1025700001D0002BF1D0664C183C246804EA1224E8
:102580000CB9002000E00120FF24614D2C6038BD13
:1025900030B50023CA245E4D2C6053242C6041EAE0
:1025A0000203B0F5807F03D1594C2034236002E050
:1025B000574C24342360FF24554D2C6030BD014618
:1025C0000020B1F5807F05D1514A20321268C2F354
:1025D0000E0004E04E4A24321268C2F30E00704727
:1025E000CA214B4A11605321116049491C390968BD
:1025F00021F00701464A1C3A11601146096801435F
:102600001160FF21424A11607047CA21404A11609F
:10261000532111603E4910390860FF211160704755
:102620003B481038006880B2704718B50146002357
:10263000009300220020CA23354C236053232360DB
:1026400049B1334B1C3B1B6843F48063304C1C3C4A
:10265000236001201FE02E4B1C3B1B6823F480638A
:102660002B4C1C3C236000BF294B183B1B6803F01C
:102670000402009B5B1C0093009BB3F5005F01D03C
:10268000002AF1D0224B183B1B6803F004030BB95E
:10269000002000E00120FF231D4C236018BDCA224A
:1026A0001B4B1A6053221A60194A1C3A126822F412
:1026B0008022174B1C3B1A601A46126840EA01033D
:1026C0001A43134B1C3B1A60FF22114B1A607047D0
:1026D0000F481C38006800F480207047CA220C4B59
:1026E0001A6053221A600A4A1C3A126822F4E00265
:1026F000074B1C3B1A601A46126840EA01031A4352
:10270000034B1C3B1A60FF22014B1A60704700000C
:10271000242800403FFFFF0070B504460D46002608
:10272000CA20FE49086053200860FFF7E7FB00B9A4
:1027300007E044EA0500F9490C390860FFF76EFC30
:102740000126FF20F5490860304670BD30B50446CB
:102750000025CA20F149086053200860FFF7CEFB2E
:1027600000B914E044B1ED481C38006840F0800026
:10277000EA491C39086007E0E8481C38006820F086
:102780008000E6491C390860FFF748FC0125FF205E
:10279000E2490860284630BDCA21E04A1160532151
:1027A000116040B1DD491C39096841F40001DB4A80
:1027B0001C3A116007E0D9491C39096821F400016D
:1027C000D64A1C3A1160FF21D44A11607047CA21D1
:1027D000D24A116053211160D0491C39096821F493
:1027E0000021CE4A1C3A116011460968014311606C
:1027F000FF21CA4A1160704770B5034600200024CB
:10280000CA25C64E356053253560C44D183D2D6828
:1028100005F4803555B100E0641CC04D183D2D68AD
:1028200005F4803515B1B4F5805FF5D1BB4D183D89
:102830002D6805F480353DB943EA01051543B74ECF
:1028400018363560012000E00020FF25B34E3560CA
:1028500070BD10B50A460021B04B1C3B1B6840F60A
:10286000080423EA04011AB140F40063194300E0AC
:102870000143CA23A94C236053232360A74B1C3B6D
:102880001960FF23236010BD2DE9F04180460C46FE
:10289000154600260027A1480C300068A04900EA30
:1028A00001069E48103000689E4900EA0107C6F301
:1028B00005402070C6F30620607006F07F00A0700F
:1028C00006F48000000CE0700020E870C7F30420DC
:1028D000687007F03F00A870C7F342302870B8F165
:1028E000000F17D12078FFF732FC20706078FFF7D7
:1028F0002EFC6070A078FFF72AFCA0706878FFF7C4
:1029000026FC6870A878FFF722FCA8702878FFF7EB
:102910001EFC2870BDE8F0818048143000687047C4
:1029200041B97E4A1C32126822EA40027B4B1C33BA
:102930001A6007E0794A1C32126842EA4002774B7B
:102940001C331A60704739B1744A1C321268024352
:10295000724B1C331A6006E0704A1C3212688243C4
:102960006E4B1C331A6070476C491C31096821F4A6
:10297000C0516A4A1C321160114609680143116056
:10298000704766491C31096821F4E061634A1C32D2
:102990001160114609680143116070475F491C319D
:1029A000096821F4C0415D4A1C3211601146096872
:1029B00001431160704740B158491C31096841F02A
:1029C0008001564A1C32116007E054491C310968E5
:1029D00021F08001514A1C321160704740B14F49CB
:1029E0001C31096821F400414C4A1C32116007E097
:1029F0004A491C31096841F40041484A1C321160BF
:102A0000704708B500220092444A2C320092009A86
:102A100002EB80020092009A116008BD08B50146E1
:102A2000002000903D482C300090009800EB810081
:102A300000900098006808BD38491C31096821F4ED
:102A40008021364A1C321160114609680143116029
:102A50007047F0B504460D4600270026CA202F49CE
:102A60000860532008602D481838006800F00800FE
:102A700050B100E0761C29481838006800F00800C2
:102A800010B1B6F5005FF5D124481838006800F0A1
:102A9000080098B921481C38006800F0100058B9A7
:102AA00045EA04001D4908310860FFF7F9F908B943
:102AB000002704E0012702E0002700E00027FF20B4
:102AC000164908603846F0BDCA22144B1A605322DA
:102AD0001A6091B1114A1C3A126820F004031A439B
:102AE0000E4B1C3B1A600D4A1C32126800F00403A6
:102AF0001A430A4B1C331A6018E0084A1C3A126841
:102B000020F004039A43054B1C3B1A60034A1C3215
:102B1000126800F004039A43004B05E024280040AB
:102B20007F7F7F003FFFFF001C331A60FF222A4B8C
:102B30001A60704710B5014600200022264B183B52
:102B40001B68264C03EA040202EA01030BB10120D0
:102B500000E0002010BDC0F3100141F080011E4ACA
:102B6000183A126802F0800262EA01011A4A183A21
:102B70001160704730B50146002000220023164C3A
:102B80001C34246804F00402134C1C3C24680C40E0
:102B90008D0C21FA05F502EAD53544EA05030E4C01
:102BA000183C246804EA11121BB194B20CB1012044
:102BB00000E0002030BD002101098AB242F080020D
:102BC000054B183B1B6803F0800363EA0202024BCB
:102BD000183B1A6070470000242800407FFF010066
:102BE00010B50446BA48844208D101218014FFF789
:102BF000C7F80021A014FFF7C3F816E0B5488442D7
:102C000008D101210014FFF7CCF800212014FFF7B0
:102C1000C8F80AE0B048844207D10121C013FFF789
:102C2000C0F80021E013FFF7BCF810BD10B500227A
:102C3000028802F441520B884C8823438C8823433A
:102C4000CC8823430C8923434C8923438C89234319
:102C5000CC8923431A430280838B4FF2FF742340B5
:102C600083830B8A038210BD2DE9FF5F05460C4666
:102C70004FF0000902274FF000084FF0010B00262B
:102C8000B246A88B4FF240010840A8830220288456
:102C9000B5F81C90A068022801D100BF33E0A088DD
:102CA00010B94FF0010B01E04FF0020B6846FEF740
:102CB0007FFFDDF800A0E088B0F5007F0AD14FEA81
:102CC0001A2000EB80004000A168B0FBF1F0401D2D
:102CD00086B20BE04FEA4B10BAFBF0F000EB80003D
:102CE0004000A168B0FBF1F0401D86B20A20B6FB9F
:102CF000F0F606F00108A6EB0800C0F34F074FF608
:102D0000FF7000EA0828022F01DBFF2F02DD0227F7
:102D10004FF00008E08840EA080038432884A08883
:102D2000A1890843618808432188084340F4006072
:102D300040EA0909A5F81C90BDE8FF9F0021018029
:102D400041808180C180018141818181C1810721D0
:102D5000018270470021018041808180C180022171
:102D6000816000218181704721B1028842F04002D8
:102D7000028004E002884FF6BF731A400280704759
:102D800021B1828B42F48062828304E0828B4FF611
:102D9000FF331A408283704702884FF2FF731A4054
:102DA000028002880A4302807047B1F5804F04D147
:102DB000028842F48042028004E002884BF6FF73EE
:102DC0001A40028070474FF6FF62914204D0028899
:102DD00042F48072028004E002884FF6FF631A40DA
:102DE0000280704721B1828842F00402828004E0B0
:102DF00082884FF6FB731A408280704701468889AB
:102E000070478181704721B1028842F400520280EC
:102E100004E002884DF6FF731A4002807047018873
:102E200041F480510180704702460020012901D001
:102E3000108B00E0908A70470146088A70471AB1EB
:102E400083880B43838002E083888B4383807047B1
:102E500030B5002400230C110125A540ABB21AB1F6
:102E600085881D43858002E085889D43858030BD2F
:102E70000246002013890B400BB1012000E0002026
:102E80007047CA4302817047F0B502460020002413
:102E90000023002501F00F070126BE40B4B20B113C
:102EA00001269E40B3B2968806EA0305168926409D
:102EB00016B10DB1012000E00020F0BD10B50022D8
:102EC00001F00F040123A3409AB2D343038110BD44
:102ED0000030014000380040003C004010B50121A6
:102EE0000846FEF74DFF00210120FEF749FF10BD07
:102EF0000020B2490860091D0860091D0860091D0D
:102F00000860091D0860091D0860091D08607047F8
:102F1000AB4908607047AA48006800F440707047E9
:102F200030B1A749496841F00101A54A516005E067
:102F3000A349496821F00101A14A5160704730B5A9
:102F400000228B071C0F0F2303FA04F29C4B08335B
:102F50008C1053F824309343994C08348D1044F866
:102F6000253023468C1053F824308C07240F00FAA8
:102F700004F42343924C08348D1044F8253030BDBE
:102F8000014600208D4A106820F44030084310604C
:102F9000704702460020894B1868104302F48023D2
:102FA000B3F5802F02D120F00F00084302F4002374
:102FB000B3F5002F03D120F0F00040EA011002F435
:102FC0008013B3F5801F03D120F4706040EA012024
:102FD00002F40013B3F5001F03D120F4704040EA5F
:102FE0000130764B1860704739B1744A121F12686D
:102FF0000243724B1B1F1A6006E0704A121F1268D0
:1030000082436E4B1B1F1A60704739B16B4A121F07
:1030100012688243694B1B1F1A6006E0674A121F41
:1030200012680243654B1B1F1A60704710B50022DF
:10303000C20F20F0004081B13AB1604B1B1D1B68EC
:1030400003435E4C241D236017E05C4B08331B6870
:1030500003435A4C083423600FE03AB1574B1B1D11
:103060001B688343554C241D236006E0534B0833F3
:103070001B688343514C0834236010BD40B14F4955
:10308000091D096841F000414C4A121D116007E01A
:103090004A49091D096821F00041484A121D116082
:1030A000704710B5012810D13AB1444B0C331B685E
:1030B0008B43424C0C3423607FE0404B0C331B6845
:1030C0000B433E4C0C34236077E0022813D14AB105
:1030D0003A4B0C331B68CC4303EA0443374C0C34A3
:1030E00023606AE0354B0C331B6843EA0143334CE1
:1030F0000C34236061E0032810D13AB12F4B103318
:103100001B688B432D4C1034236056E02B4B10333F
:103110001B680B43294C103423604EE0042813D164
:103120004AB1264B10331B68CC4303EA0443234CBB
:103130001034236041E0214B10331B6843EA014304
:103140001E4C1034236038E0052810D13AB11B4BD7
:1031500014331B688B43194C143423602DE0174B38
:1031600014331B680B43154C1434236025E00628E8
:1031700013D14AB1114B14331B68CC4303EA044307
:103180000E4C1434236018E00C4B14331B6843EAD4
:1031900001430A4C143423600FE03AB1074B183353
:1031A0001B688B43054C1834236006E0034B18332F
:1031B0001B680B43014C1834236010BD047C004095
:1031C0000000014010B50446B4F1804F08D1012140
:1031D0000846FEF7E6FD00210120FEF7E2FD5EE075
:1031E000FB48844208D101210220FEF7DAFD0021CC
:1031F0000220FEF7D6FD52E0F648844208D10121B4
:103200000420FEF7CEFD00210420FEF7CAFD46E0B3
:10321000F148844208D101210820FEF7C2FD0021B7
:103220000820FEF7BEFD3AE0EC48844208D10121B7
:103230001020FEF7B6FD00211020FEF7B2FD2EE0B3
:10324000E748844208D101212020FEF7AAFD002191
:103250002020FEF7A6FD22E0E248844208D10121A9
:103260000420FEF78DFD00210420FEF789FD16E005
:10327000DD48844208D101210820FEF781FD0021AC
:103280000820FEF77DFD0AE0D848844207D10121DD
:103290001020FEF775FD00211020FEF771FD10BD16
:1032A00000220288B0F1804F08D0C94B984205D067
:1032B000C84B984202D0C84B984204D14FF68F7346
:1032C0001A404B881A43C54B984207D0C44B9842CA
:1032D00004D04FF6FF431A400B891A4302804B6813
:1032E000C3620B8803850123838270474FF0FF314F
:1032F0004160002101800181418070470185828207
:1033000070470A46002101884FF68F731940114318
:103310000180704741627047C16270470146486A48
:1033200070470146088D704721B1028842F00202C1
:10333000028004E002884FF6FD731A400280704755
:1033400021B1028842F00402028004E002884FF6B4
:10335000FB731A400280704721B1028842F080025C
:10336000028004E002884FF67F731A4002807047A3
:1033700002884FF6F7731A40028002880A430280DF
:10338000704702884FF6FF431A40028002880A43C2
:103390000280704721B1028842F00102028004E0FD
:1033A00002884FF6FE731A400280704730B5002342
:1033B0000022048C4FF6FE752C400484028C038B93
:1033C0004FF68F742340AC1E23400C8823436C1EA1
:1033D00022400C8922434C8822434C684463038377
:1033E000028430BD30B500230022048C4FF6EF7507
:1033F0002C400484028C038B48F6FF7423400C8815
:103400004FF6FF7505EA042423434FF6DF7422408C
:103410000C8905EA041422434C8805EA041422436B
:103420004C6884630383028430BD30B500230022DE
:10343000048C4FF6FF652C400484028C838B4FF67E
:103440008F7423400C8823434FF6FF5422400C898D
:103450004FF6FF7505EA042422434C8805EA04244C
:1034600022434C68C4638383028430BD30B500239B
:103470000022048C4EF6FF752C400484028C838B52
:1034800048F6FF7423400C884FF6FF7505EA0424C4
:1034900023434DF6FF7422400C8905EA043422438D
:1034A0004C8805EA043422434C6804648383028414
:1034B00030BD00210180418041600181704770B5BD
:1034C0000346002000241846183001258D40ACB278
:1034D0001D8CA5431D8409B1082909D100EB6100A9
:1034E000056825F0700505600568154305600EE068
:1034F0000D1FC5F34E052844056825F4E045056019
:1035000005684FF6FF7606EA02263543056070BD72
:103510004163704781637047C163704701647047BE
:103520000A460021018B4FF68F7319401143018326
:1035300070470A460021018B48F6FF7319404FF689
:10354000FF7303EA02231943018370470A460021EF
:10355000818B4FF68F7319401143818370470A4660
:103560000021818B48F6FF7319404FF6FF7303EA81
:1035700002231943818370470A460021018B4FF6CD
:10358000F77319401143018370470A460021018BEC
:103590004FF2FF7319404FF6FF7303EA02231943FA
:1035A000018370470A460021818B4FF6F77319405B
:1035B0001143818370470A460021818B4FF2FF73CC
:1035C00019404FF6FF7303EA0223194381837047C2
:1035D0000004004000080040000C004000100040C3
:1035E0000014004000080140000C014000100140A0
:1035F0000A460021018B4FF6FB73194011430183EA
:1036000070470A460021018B4FF6FF3319404FF6F1
:10361000FF7303EA02231943018370470A4600211E
:10362000818B4FF6FB7319401143818370470A4623
:103630000021818B4FF6FF3319404FF6FF7303EAE9
:1036400002231943818370470A460021018B4FF6FC
:103650007F7319401143018370470A460021018B93
:10366000C1F30E014FF6FF7303EA022319430183EE
:1036700070470A460021818B4FF67F731940114332
:10368000818370470A460021818BC1F30E014FF6FA
:10369000FF7303EA02231943818370470A4600211E
:1036A000018C4FF6FD7319401143018470470A469F
:1036B0000021018C4FF6DF7319404FF6FF7303EAC8
:1036C00002131943018470470A460021018C4FF60A
:1036D000FF5319404FF6FF7303EA02231943018495
:1036E00070470A460021018C4DF6FF7319404FF6D2
:1036F000FF7303EA023319430184704702894FF6CE
:10370000F7731A40028102890A430281704730B57B
:10371000002301248C40A3B2048C9C430484048CB9
:1037200002FA01F5ADB22C43048430BD828B4FF216
:10373000FF331A408283828B4FF6FF7303EA012323
:103740001A4382837047F0B50C46154600210022CB
:103750000026078C4EF6FF7C07EA0C070784818B56
:10376000028C4FF6FF7707EA043640F6FF473940F0
:103770004FF6FF7707EA052739434FF6FF7707EA49
:103780000337394345F6FF773A4046F480573A43CA
:1037900081830284F0BD828B4FF6F3731A408283DB
:1037A000828B0A4382837047F0B50C461546002190
:1037B00000220026078C4FF6FF6C07EA0C070784EF
:1037C000818B028C4FF6FF7707EA04264FF60C77C1
:1037D00039404FF6FF7707EA03172F4339434FF27B
:1037E000FF573A4046F480773A4381830284F0BD24
:1037F000028B4FF2FF331A400283028B4FF6FF73A6
:1038000003EA01231A4302837047F0B50C461546BC
:10381000002100220026078C4FF6EF7C07EA0C07F8
:103820000784018B028C4FF6FF7707EA041640F6F7
:10383000FF4739404FF6FF7707EA033739434FF622
:10384000FF7707EA052739434FF65F773A4046F09E
:1038500010073A4301830284F0BD028B4FF6F373E5
:103860001A400283028B0A4302837047F0B50C466C
:10387000154600210022068C4FF6FE773E40068456
:10388000018B028C4FF60C7631407E1C06EA031643
:103890002E4331434FF6F576324044F00106324371
:1038A00001830284F0BD70B505460C46208850B9EE
:1038B0002389A28861882846FFF7D8FFE188284637
:1038C000FFF7CBFF25E0208804280AD12389A288AE
:1038D00061882846FFF799FFE1882846FFF788FFAF
:1038E00017E0208808280AD12389A2886188284601
:1038F000FFF75AFFE1882846FFF74DFF09E02389CB
:10390000A28861882846FFF71EFFE1882846FFF756
:103910000DFF70BD002101804180012181800021C7
:10392000C180018170472DE9F04105460C46002613
:103930000127608808B9022600E00026A088012837
:1039400001D1022700E001272088A0B92389A2889D
:1039500061882846FFF78AFFE1882846FFF77DFF48
:1039600023893A4631462846FFF74FFFE18828462B
:10397000FFF73EFF13E02389A28861882846FFF7FE
:1039800044FFE1882846FFF733FF23893A46314652
:103990002846FFF76BFFE1882846FFF75EFFBDE88A
:1039A000F0810146486B70470146886B70470146BD
:1039B000C86B70470146086C70471AB183890B4386
:1039C000838102E083898B438381704781827047C2
:1039D00002460020138A0B400BB1012000E00020BA
:1039E0007047CA430282704730B502460020002368
:1039F0000024158A05EA0103958905EA010413B13B
:103A00000CB1012000E0002030BDCA4302827047A3
:103A100041EA0203A0F8483070471AB183890B438A
:103A2000838102E083898B438381704721B182883F
:103A300042F00802828004E082884FF6F7731A4051
:103A40008280704701894FF6F872114001817047FA
:103A50000A46002101894FF68F73194011430181F5
:103A6000704730B504460D4629462046FFF7F0FF63
:103A7000208940F00700208130BD2DE9F041044647
:103A80000D4616461F46602D06D13B4601223146A3
:103A90002046FFF7BAFE05E03B46012231462046AC
:103AA000FFF7E4FE29462046FFF7D2FF208940F0C9
:103AB00007002081BDE8F08130B50C460021018966
:103AC000C9B24FF6FF7505EA03251543254329437F
:103AD000018130BD2DE9F04105460E461746984656
:103AE000002443463A4631462846FFF7E5FF2C8935
:103AF0004FF6F870044044F007044FF68F7004400E
:103B000044F070042C81BDE8F081F0B504460D4608
:103B100016461F463B46324629462046FFF7CCFF55
:103B2000208940F480402081F0BD82884FF68F7359
:103B30001A40828082880A438280704702894FF649
:103B4000F8731A40028102890A4302817047028990
:103B50004FF67F731A40028102890A43028170473F
:103B6000F0B50C4615461E460021002200230189AF
:103B7000028B038C4FF6F877394021434FF6FC4710
:103B80003A4040F201173A434FF6DD773B404FF69B
:103B9000FF7707EA06172F433B4301810283038423
:103BA000F0BD21B1828842F08002828004E08288E8
:103BB0004FF67F731A408280704730F8502F02EA28
:103BC0001142028002888BB21A4320F850297047B4
:103BD00010B50446F748844209D101218803FEF755
:103BE000CFF800214FF48040FEF7CAF832E0F248E7
:103BF000844209D101214804FEF7D3F800214FF493
:103C00000030FEF7CEF825E0EC48844209D10121CE
:103C10008804FEF7C6F800214FF48020FEF7C1F8B3
:103C200018E0E748844209D10121C804FEF7B9F839
:103C300000214FF40020FEF7B4F80BE0E148844285
:103C400008D101210805FEF7ACF800214FF48010DF
:103C5000FEF7A7F810BD2DE9FF4705460E460024E4
:103C6000A14600BFA046B08900B100BF2C8A24F451
:103C70004054F08804432C82AC8941F20C608443A8
:103C8000B08831890843718908430443AC81AC8A08
:103C900024F44074B0890443AC826846FDF788FF81
:103CA000C448854202D1DDF80C9001E0DDF80890AF
:103CB000A88900F4004040B109EBC90000EB0910ED
:103CC00031684900B0FBF1F707E009EBC90000EBF0
:103CD000091031688900B0FBF1F76420B7FBF0F000
:103CE00004012009642101FB1078A88900F4004038
:103CF00040B1322000EBC800B0FBF1F000F007004B
:103D0000044308E0322000EB08106421B0FBF1F01E
:103D100000F00F0004432C81BDE8FF874FF41651DB
:103D2000016000218180C18001810C21418100213D
:103D30008181704710B502460020108A20F470601F
:103D40000B884C8823438C882343CC882343184317
:103D5000108210BD0021018041808180C1807047A8
:103D600021B1828942F40052828104E082894DF6B9
:103D7000FF731A4082817047028B02F47F420283F4
:103D8000028B0A430283704721B1828942F40042C8
:103D9000828103E08289C2F30E028281704721B1E1
:103DA000828A42F40062828204E0828A4FF2FF73C8
:103DB0001A4082827047C1F3080282807047014630
:103DC0008888C0F308007047028A4FF6F0731A40E3
:103DD0000282028A0A430282704721B1828942F03C
:103DE0000202828104E082894FF6FD731A408281CB
:103DF000704782894FF2FF731A40828182890A4399
:103E000082817047028A4FF6DF731A400282028A6B
:103E10000A430282704721B1028A42F48042028240
:103E200004E0028A4BF6FF731A40028270478189D0
:103E300041F001018181704721B1828A42F008027C
:103E4000828204E0828A4FF6F7731A4082827047BA
:103E5000028BD2B20283028B42EA012202837047B4
:103E600021B1828A42F02002828204E0828A4FF6E7
:103E7000DF731A408282704721B1828A42F01002B9
:103E8000828204E0828A4FF6EF731A408282704782
:103E9000828A4FF6FB731A408282828A0A438282A8
:103EA000704721B1828A42F00202828204E0828A53
:103EB0004FF6FD731A40828270471AB1838A0B4312
:103EC000838202E0838A8B4383827047F0B5034686
:103ED000002400260025002040F66A17B94200D1D0
:103EE00000BF1846C1F3421401F01F06012707FA6C
:103EF00006F5012C01D10C3004E0022C01D1103068
:103F000000E014301AB107682F43076002E0076829
:103F1000AF430760F0BD02460020B1F5007F00D13D
:103F200000BF13880B400BB1012000E00020704758
:103F300001F40072B2F5007F00D100BFCA430280D5
:103F4000704770B50246002400230025002040F68B
:103F50006A16B14200D100BFC1F3421501F01F0340
:103F6000012606FA03F3012D02D19689334006E0BB
:103F7000022D02D1168A334001E0968A33400C129A
:103F8000012606FA04F41688344013B10CB101205E
:103F900000E0002070BD10B50022002340F66A1436
:103FA000A14200D100BF0A1201249440A3B2DC4315
:103FB000048010BD0038014000440040004800402B
:103FC000004C004000500040202000F0F7F900F0C5
:103FD0004FFD00F091FD06F0F3F8012006F008F91E
:103FE0004FF4165000F06AFA02F01EFB00F0E9FAF6
:103FF00001F0E7F801F006FC00F00BFC012801D00D
:1040000000BFFEE700F015FF06F028F9012006F0DA
:104010003DF904F0F3FC002004F0B0FD642000F052
:1040200005FAFF2004F0AAFD04F03EFB06F0EDF8CF
:1040300002F000FC02F06CFC02F063FC012006F0D0
:1040400025F9002004F09AFD012006F0D1F872E075
:104050003948007800F00800082817D100203749B7
:1040600008703748007870B906F024F904F031FC84
:10407000324908700846007800B3012030490870C2
:1040800006F0DFF838E006F059F835E0002004F0DB
:1040900075FD00202A4908702748007800F00100CB
:1040A00068B103F03CF82448007840F0040022494D
:1040B00008700846007820F0010008701CE01E48D7
:1040C000007800F00200022802D103F068FA13E041
:1040D0001948007800F0100010280DD1164800781B
:1040E00020F01000144908700846007800F0040021
:1040F000042801D104F06BF91248007801280DD191
:104100000020104908700C48007820F001000A498E
:1041100008700846007820F0040008700A4800780B
:10412000012808D10020084908700348007820F0D1
:104130000200014908708BE7AC0000201900002044
:104140001A0000205E0000205F0000200CB5002057
:10415000019000908748006840F4803085490860ED
:1041600000BF8448006800F4003000900198401CB3
:104170000190009818B90198B0F5A06FF1D17D4871
:10418000006800F4003010B10120009001E0002030
:1041900000900098012859D17748006840F0040049
:1041A000754908600846006840F00200086008464B
:1041B000006840F0010008606E482430006840F05C
:1041C00080506C4924310860C8146C49086000BFF5
:1041D0006A48406800F010000028F9D165480830AE
:1041E00000686449083108600846006808600846AD
:1041F000006808600846006820F47D0008600846F2
:10420000006840F49A0008605A48006840F08070E6
:104210005849086000BF5748006800F00070002847
:10422000F9D054480830006820F0030051490831A3
:1042300008600846006840F00300086000BF4D4871
:104240000830006800F00C000C28F8D10CBD10B547
:104250004848006840F48070464908604548083086
:1042600000684749084043490831086041480068F0
:10427000444908403F4908600846006820F480200F
:1042800008603C480830006820F47D003949083156
:1042900008600020091D0860FFF758FF4FF000601C
:1042A0003949086010BD70B50022002000210024AB
:1042B0000023304D08352D6805F00C0232B1042A78
:1042C00010D0082A12D00C2A39D113E0294D2D1D07
:1042D0002D68C5F342335D1C0126AE40F5032B4E1D
:1042E000356038E02A4D294E356034E0294D274E9F
:1042F000356030E01F4D08352D6805F470101D4DF8
:1043000008352D6805F44001234D05EB90452878CC
:10431000012505EB9151174D08352D6805F48034C2
:1043200034B91B4D4543B5FBF1F5184E356005E03A
:10433000184D4543B5FBF1F5144E35600BE00D4DBE
:104340002D1D2D68C5F342335D1C0126AE40F503DB
:104350000E4E356000BF00BF064D08352D68C5F311
:1043600003150E4E725D094D2D68D540074E356020
:1043700070BD000000380240003C02400070004068
:104380000CC0FF88FEFFFEEE08ED00E01C000020E0
:104390000024F40000127A002000002029000020F0
:1043A000704700BFFEE700BFFEE700BFFEE700BFAB
:1043B000FEE7704770477047704700004FF0E021FC
:1043C000096921F004014FF0E0221161C21700EBEE
:1043D0005272C2F3C702234B1A701946097801EBD7
:1043E0004102C2EBC1114FF6FF7202EAC1011E4A3F
:1043F0001180704701461B4A12784A434FF0E02370
:104400005A6100229A6101221A6100BF4FF0E02236
:10441000106900F001021AB100F48032002AF5D0D0
:1044200000224FF0E0231A619A61704701460E4A5C
:1044300012884A434FF0E0235A6100229A61012218
:104440001A6100BF4FF0E022106900F001021AB1BA
:1044500000F48032002AF5D000224FF0E0231A61E8
:104460009A6170473A0000203C0000202DE9F0419D
:1044700007460D46164600240CE0295D3846FFF736
:104480009AFC00BF40213846FFF745FD0028F9D0CF
:10449000601C84B2B442F0DBBDE8F08170B5044624
:1044A0000D46E1B24048FFF786FC00BF80213E4840
:1044B000FFF731FD0028F9D0204670BD10B588B057
:1044C000044601218803FDF728FC01210846FDF779
:1044D00013FC3548FFF77CFB4FF40070029002207C
:1044E0008DF80C008DF80D0000208DF80E000120D5
:1044F0008DF80F0002A92D48FCF722FF4FF48060D1
:10450000029002A92948FCF71BFF0722092127482E
:10451000FCF79FFF07220A212448FCF79AFF049426
:104520000020ADF81400ADF81600ADF81800ADF895
:104530001C000C20ADF81A0004A91B48FFF78BFBE8
:1045400001211948FFF70CFC012240F225511648C1
:10455000FFF7BCFC25208DF8040003208DF8050032
:104560008DF8060001208DF8070001A8FBF7E3FD98
:1045700040210D48FFF7DCFC08B010BD70B50446C3
:104580000D460BE021780848FFF715FC641C00BFBE
:1045900040210548FFF7BFFC0028F9D02800A5F10D
:1045A00001018DB2EED170BD003801400000024023
:1045B00001B502E00098401E009000980028F9D153
:1045C00008BD1CB501210846FDF796FB10200090A0
:1045D00001208DF8040000208DF8060001208DF8E0
:1045E000070002208DF805006946CB48FCF7A8FEBD
:1045F0000820009001208DF8040000208DF80600AE
:1046000001208DF8070002208DF805006946C24898
:10461000FCF796FE0420009000208DF804008DF831
:10462000060001208DF8070002208DF8050069467C
:10463000B948FCF785FE00F0B9FC0821B648FCF744
:10464000FBFE1021B448FCF7F5FE1CBD10B5044676
:1046500000BF0221B148FEF70BFC0028F9D021462B
:10466000AE48FEF7CEFB00BF0121AC48FEF700FCD0
:104670000028F9D0A948FEF7C1FBC0B210BD70B543
:1046800005460C460821A448FCF7D6FE1021A24896
:10469000FCF7D2FE2846FFF7D9FF06462046FFF773
:1046A000D5FF10219C48FCF7C5FE304670BD70B5A3
:1046B000044608219848FCF7BFFE10219648FCF7F5
:1046C000BBFE2046FFF7C2FFFF20FFF7BFFF0546F6
:1046D00010219148FCF7AEFE284670BD2DE9F0414F
:1046E00007460D46164608218B48FCF7A5FE10210B
:1046F0008948FCF7A1FE3846FFF7A8FF8046002452
:1047000005E0FF20FFF7A2FF2855601CC4B2B442A9
:10471000F7DB10218048FCF78DFE4046BDE8F081B4
:104720002DE9F04107460C46154608217A48FCF76A
:1047300083FE10217848FCF77FFE3846FFF786FF9E
:104740008046002605E014F8010BFFF77FFF701C80
:10475000C6B2AE42F7DB10216F48FCF76BFE404655
:10476000BDE8F08110B508216B48FCF765FE052215
:104770006B492A20FFF7D4FF01212120FFF77FFF9B
:1047800001212220FFF77BFF00212520FFF777FF83
:1047900020213120FFF773FF0F212620FFF76FFF45
:1047A0000F212020FFF76BFF08215B48FCF742FE3A
:1047B00010BD10B508215848FCF73EFE05225949A6
:1047C0003020FFF7ADFF052255492A20FFF7A8FF4B
:1047D00001212120FFF753FF01212220FFF74FFF86
:1047E0001A212420FFF74BFF00212520FFF747FF68
:1047F0000F212620FFF743FF0E212020FFF73FFF68
:1048000008214548FCF716FE4FF6FF70FFF7D0FE73
:1048100010BD1CB544A103C9CDE90001082000F07A
:104820000EFC052269463020FFF77AFF0522694613
:104830001020FFF753FF002406E01DF80400C228F3
:1048400000D003E0601CC4B2052CF6DB00BF052CD1
:1048500001D101201CBD0020FCE770B505460821F0
:104860002D48FCF7E9FD20222946A020FFF758FF3C
:1048700008212948FCF7DEFD00BF04212648FCF78B
:10488000C1FD0028F9D10720FFF711FF044621469A
:104890002720FFF7F4FEFF21E120FFF7F0FE04F0F0
:1048A000100008B1102070BD04F0200008B12020D5
:1048B000F9E70020F7E770B5054608211648FCF730
:1048C000B9FD1BE008211448FCF7B6FD0720FFF7EF
:1048D000EEFE044621462720FFF7D1FE04F04000FB
:1048E00050B1202229466120FFF7F8FEFF21E22087
:1048F000FFF7C5FE402070BD0020FCE704210648FC
:10490000FCF780FD0028DDD00020F4E710B5002181
:104910002020FFF7B4FE10BD00000240003001402F
:10492000430000203E000020C2C2C2C2C2000000FC
:104930000146088870472DE9F04105460E461746A6
:10494000002407E036F814102846FCF77EFAAD1C68
:10495000601C84B2BC42F5DBBDE8F08130B5034693
:104960000C461546002207E01846FFF7E1FF24F841
:1049700012009B1C501C82B2AA42F5DB30BD2DE90F
:10498000F05F80468A4616463648804502D3364850
:10499000804501D3BDE8F09FFCF7BEF83148A8EB95
:1049A000000B4FEA9B27CBF34809C9F50074A642D8
:1049B00000DC344647E02B4901EB87204FF40072BE
:1049C0002A49FFF7CBFF00250BE009EB050027493B
:1049D00031F810004FF6FF71884200D003E0681CE8
:1049E00085B2A542F1DB00BFA54215DA002508E03B
:1049F0003AF8150005EB09011C4A22F81100681C61
:104A000085B2A542F4DB174901EB87204FF4007211
:104A10001649FFF790FF04E0224651464046FFF753
:104A20008AFFA64200D10FE07F1C4FF000090AEB7D
:104A3000440AA044301B86B2B6F5007F02DD4FF475
:104A4000007400E03446B6E700BFFCF7FAF800BF98
:104A5000A0E713B50446012201A92046FFF78FFF06
:104A60001CBD000000000808000808080808002015
:104A700000B587B00120FCF72AFF0120FDF738F9C7
:104A80000020FDF735F90120FDF741F800BF49206E
:104A9000FCF7EAFF0028FAD04FF48030FDF704F964
:104AA0000120FDF721F97F200590FF2006900020CE
:104AB000049004A8FDF7BBFA4FF4003002900020E8
:104AC0008DF80C0008208DF80D0001208DF80E00E7
:104AD00002A8FBF76EFF29208DF8040000208DF856
:104AE000050002208DF8060001208DF8070001A8BE
:104AF000FBF721FB07B000BD1CB513208DF80300A8
:104B000008208DF8010015208DF80200694600206C
:104B1000FDF7C6FB0A208DF804000E208DF8050075
:104B200014208DF8060000208DF8070001A9FDF77C
:104B300019FB1CBD1FB500214FF48070FDF7F0FC80
:104B400000208DF80300744800788DF8000072484A
:104B50004078401CC0B28DF801009DF801003C284F
:104B600008D16D480078401CC0B28DF800000020CC
:104B70008DF801009DF80000182802D100208DF862
:104B8000000000208DF802004FF0804002904FF0AE
:104B9000802001906A46C10D0020FDF70AFC01212A
:104BA0000802FDF7BDFC01210803FDF78DFF4FF45E
:104BB0000030FBF775FF4FF48070FDF7CCFF1FBD91
:104BC00010B54FF48050FDF7D5FF00284ED04FF4BC
:104BD0000030FBF765FF4FF48070FDF7BCFF4E49D6
:104BE0000020FDF729FBFFF7A5FF00F063FA002086
:104BF0004A4908704A48007840F002004849087065
:104C000043F2FF114CF24F3000F0F7FB20214548F2
:104C1000FCF71BFC444800880F2807D13E48407829
:104C2000032190FBF1F201FB120070B13E480088B5
:104C30003C2802D13848407838B13B480088B0F56C
:104C4000B46F13D13448007880B93548007840F00B
:104C50000100334908700846007820F0020008700F
:104C600049F2FF514CF24F3000F080FB10BD2DE9AE
:104C7000F04F8FB0044630222C4901A805F072FD98
:104C800020781E30C6B294F8019094F802A094F8EF
:104C900003B020790E9060790D9040F26D1006FB04
:104CA00000F5022E05DD701CC11700EB917105EBBC
:104CB000A1054FF0010807E0A8F1010001A951F892
:104CC0002000054408F10108C845F5D3B01CC11700
:104CD00000EB91718910A0EB810119B9B9F1020FB4
:104CE00000DD6D1CAAF10100054405EB45000BEB4E
:104CF000C000C0EB00110E9800EB8100C0EB00116A
:104D00000D9800EB8107B7F5E14F01D3A7F5E14717
:104D100038460FB0BDE8F08F4E000020AD000020F7
:104D2000AC000020000802405600002000B400083B
:104D30001CB501210620FCF7DFFF042000900120B4
:104D40008DF8040000208DF8060001208DF8070082
:104D500002208DF8050069468F48FCF7F1FA022021
:104D6000009001208DF8040000208DF8060001203D
:104D70008DF8070002208DF8050069468648FCF78B
:104D8000DFFA02218448FCF755FB012000908DF8E2
:104D9000040000208DF8060001208DF80700022095
:104DA0008DF8050069467D48FCF7CAFA01217B4869
:104DB000FCF740FB1CBD00B58BB001210806FCF7D9
:104DC0009BFF7748FBF7BCFC764800907648019043
:104DD0000020029003200390002004908020059082
:104DE0004000069080000790202008900002099063
:104DF00000200A9069466A48FBF744FD0723012218
:104E00000D2168485838FBF798FA072302220A2137
:104E100064485838FBF791FA0723032209216148B7
:104E20005838FBF78AFA01215D48FBF756FD0BB0B5
:104E300000BD00B589B001210620FCF75DFF01210E
:104E40004802FCF76AFF0820079003208DF8200035
:104E500000208DF8230002208DF8210007A94E487C
:104E6000FCF76EFA0120079003208DF82000002047
:104E70008DF8230002208DF8210007A94648FCF791
:104E80005FFA0220079003208DF8200000208DF8A3
:104E9000230002208DF8210007A94048FCF750FAB2
:104EA0000120FCF731FE00BF2120FCF7DDFD0028CA
:104EB000FAD03C485838FBF7A9F9002001900120AE
:104EC0008DF808008DF80900002003904FF0407025
:104ED00004900020059003208DF8180001A93148A6
:104EE0005838FBF7A1F9FFF766FF01212D48583824
:104EF000FBF71AFB01212B485838FBF70AFB01216D
:104F000028485838FBF7D0F9FFF712FF25485838E2
:104F1000FBF7BFFA00BF022122485838FBF7ECFB31
:104F20000028F8D009B000BD10B504211A48FCF7DC
:104F300083FA02211848FCF77FFA01211748FCF791
:104F40007BFA10BD10B504211348FCF773FA022157
:104F50001148FCF76FFA01211048FCF76BFA10BDFD
:104F60000146114830F8110070472DE9F04105461F
:104F70000C460026002708E00B4830F815000644D0
:104F80000520FFF753FA781CC7B2A742F4DBB6FB43
:104F9000F4F080B2BDE8F081000802400004024055
:104FA0000860024058240140580000201CB501212F
:104FB0000846FCF7A1FE01210803FCF7AEFEE02045
:104FC000009002208DF8040000208DF806000120DA
:104FD0008DF8070002208DF8050069463248FCF77D
:104FE000AFF9052211463048FCF733FA05220621B5
:104FF0002D48FCF72EFA052207212B48FCF729FA49
:10500000E0212948FCF716FA0020284908804FF4CF
:105010008270488000208880C88008814FF400702A
:105020004881182088810020C881072008822048F4
:10503000FDF7FCFD01211E48FDF796FE1CBD10B5D5
:1050400004461A48848101461948FDF7EFFD012105
:105050001748FDF789FE10BD70B50546002405E030
:10506000601CC4B2C82C01DD002070BD02211048B4
:10507000FDF7FEFE0028F3D029460D48FDF7C1FEDE
:10508000002405E0601CC4B2C82C01DD0020ECE760
:1050900001210748FDF7ECFE0028F3D00448FDF796
:1050A000ADFEC0B2E1E7000000000240080C0020A5
:1050B0000030014010B50120FCF7CFFC00BF3120CB
:1050C000FCF7D2FC0028FAD00120FCF732FD00BF2B
:1050D0003920FCF7C9FC0028FAD00320FCF739FD81
:1050E00000BFFCF740FD0C28FBD10120FCF70CFDB4
:1050F00000BF2120FCF7B8FC0028FAD010BD10B585
:1051000001210807FCF74DFE01210020FCF738FCC7
:1051100010BD00001CB50820009000208DF8040090
:1051200003208DF8050069468C48FCF709F91CBD81
:1051300010B50024FFF7EEFF04E0601CC4B20120AC
:10514000FFF758F98648006808B1C82CF5DBC82C71
:1051500001DB012010BD002404E0601CC4B201206A
:10516000FFF748F97E48006808B9F02CF5DBF02C11
:1051700001DB0120EEE70020ECE71CB508200090E1
:1051800001208DF8040000208DF8060003208DF822
:10519000050069467148FCF7D3F81CBD10B5FFF750
:1051A000ECFF00206E498031086040F2EE20FFF7EE
:1051B00021F901206B49C1F88C020F20FFF71AF981
:1051C00010BD1CB501210220FCF796FD08200090BF
:1051D00001208DF8040000208DF8060003208DF8D2
:1051E000050069465D48FCF7ABF808215B48FCF711
:1051F00021F9FFF7D3FFFFF79BFF1CBD70B50446F5
:10520000FFF7BBFF012522E004F00106641076B130
:1052100000205349803108600520FFF7EBF801209A
:105220005049C1F88C024120FFF7E4F80DE000205E
:105230004B49803108604120FFF7DCF801204949E3
:10524000C1F88C020520FFF7D5F8681CC5B2082DFF
:10525000DADD70BD10B5FFF7A1FFFFF769FFCC20C5
:10526000FFF7CCFF4420FFF7C9FF10BD10B5FFF7D3
:1052700084FF00203A49803108600520FFF7BAF822
:1052800001203849C1F88C02FFF744FF0520FFF7E1
:10529000B1F83348006808B1012400E0002441203F
:1052A000FFF7A8F8204610BD70B50026012508E0DC
:1052B000FFF7DCFF0446E00140EA6600C6B2681C66
:1052C000C5B2082DF4DD304670BD2DE9F84FFFF76B
:1052D000C1FFFFF763FFFFF72BFFCC20FFF78EFF27
:1052E000BE20FFF78BFF4FF42F70FFF79FF8FFF7FB
:1052F000DBFF8346FFF7D8FF0446072C08DDE043B9
:10530000C4B26FEA0B0000F0FF0B4FF0000A01E09F
:105310004FF0010AA1464FEA09200FFA80F909EB84
:105320000B000FFA80F9484605F0B8FC009005F034
:105330000CFD074600220C4B05F0CFFB054605F09F
:10534000E5FC0FFA80F9BAF1000F02D04846BDE83B
:10535000F88FC9F1000000B2F9E700000004024034
:105360000C824042008040420000E43F7FB5054689
:105370000C4601210846FCF7E1FC0295ADF804401B
:105380000020ADF80C00ADF8060001A94FF08040F8
:10539000FDF786FF01218807FEF737FB0122114642
:1053A0009007FEF70AFB01218807FDF7F3FF4FF492
:1053B000C060FAF7BBFE1C208DF8000000208DF8BD
:1053C000010004208DF8020001208DF803006846DA
:1053D000FAF7B1FE7FBD10B501218807FEF704FB87
:1053E00050B101218807FEF710FB01202649087003
:1053F00000218007FDF7CEFF10BD7FB505460C46A6
:1054000001210820FCF789FC0295ADF8044000203A
:10541000ADF80C00ADF8060001A91C48FDF740FFEF
:1054200001211A48FEF7F1FA012211461748FEF74A
:10543000C4FA01211548FDF7ADFF4FF4C060FAF73B
:1054400075FE1A208DF8000000208DF8010005205F
:105450008DF8020001208DF803006846FAF76BFE14
:105460007FBD10B501210948FEF7BEFA50B10121F8
:105470000648FEF7CAFA01200549087000210348D2
:10548000FDF788FF10BD00005E000020000C014009
:105490005F000020704710B504460121D4E90002E6
:1054A00090470021A268206890470220E169884760
:1054B0000121A268206890470220E1698847002105
:1054C000D4E9000290470220E16988470021A268E0
:1054D000206890470220E16988470121A26820687E
:1054E00090470220E16988470121D4E900029047F2
:1054F0000220E16988470021A2682068904710BD1A
:1055000070B504460121D4E9000290470021A26849
:10551000206890470220E169884700250EE00121BC
:10552000A268206890470220E16988470021A268AC
:10553000206890470220E16988476D1C092DEEDB49
:1055400070BD2DE9F04104460E4621692068884768
:1055500080251DE00220E169884705EA060020B1A8
:105560000121D4E90002904703E00021D4E90002C0
:1055700090470220E16988470121A268206890478E
:105580000220E16988470021A268206890476D10D9
:10559000002DDFDC0420E16988470121D4E9000205
:1055A00090476169206888470121A2682068904778
:1055B0000220E1698847E1682068884707460021A2
:1055C000A268206890473846BDE8F0812DE9F04197
:1055D00004460E4600270121D4E900029047616984
:1055E00020688847802513E00220E169884701216F
:1055F000A268206890470220E1698847E168206836
:10560000884700B12F430021A268206890476D10A1
:10561000002DE9DC0220E16988472169206888477C
:1056200026B10021D4E90002904703E00121D4E92A
:10563000000290470121A268206890470220E1699A
:1056400088470021A268206890470121D4E9000220
:1056500090473846BDE8F0812DE9F047044688467A
:10566000164600252046FFF716FFB8F1000F03D0BD
:10567000B8F1010F0ED106E003212046FFF761FFCC
:105680002844C5B207E005212046FFF75AFF284409
:10569000C5B200E000BF00BF0121D4E9000290477D
:1056A000616920688847002708E00A20A1698847C7
:1056B000E1682068884700B903E07F1CB7F5967F52
:1056C000F3D300BFE1682068884708B1681CC5B201
:1056D00006B1357015B10020BDE8F08701212046E4
:1056E000FFF774FF814601212046FFF76FFF8246D6
:1056F00000212046FFF76AFF0AEB0920ECE72DE9BD
:10570000F04F8BB004460D46304809903048089061
:105710003048079030480690304805902068049043
:1057200028680390039805F010FB2D4A2D4BCDE916
:10573000000105F0D2F907462B4A2C4B05F0C7F9BA
:10574000824605F045FB81462148049905F0AEF8F4
:1057500082462048049905F0A9F88346049905F08B
:10576000A5F88046514605F049F80746174905F067
:1057700045F802901948049905F098F883461649AF
:1057800005F03CF880461A49484605F089F88246FB
:10579000414605F08BF80746029905F02FF80646BA
:1057A0001449304605F03AFB00D2124E304605F05F
:1057B000CCFA0746104A114B05F0DAFA00D2104E27
:1057C000C5F8009026600BB0BDE8F08FC5FE02C0A2
:1057D000BD52163DF624D6B50AD7233CACC5A73832
:1057E0007B14AE47E17A843FCDCCCCCCCCCC4340CB
:1057F0000000C8410000C8429A9999999999B93F07
:10580000CDCCCC3D70B5002408E004EB84003E49CB
:1058100001EB8005D5E900018847641C012CF4DB0D
:1058200070BD70B5044604EB8400374901EB800578
:10583000A9682868884770BD70B504460D4626469D
:10584000318D2A46306AFBF7F9FD70BD70B504460C
:105850000D462646718D2A46706AFBF7EFFD70BD36
:1058600070B504462546298D286AFBF7CBFD002834
:1058700001DD012070BD0020FCE7704770477CB55A
:105880000446254601210920FCF736FA4FF4006052
:10589000009001208DF804008DF806008DF80700B7
:1058A00002208DF8050069461848FBF749FD0420E1
:1058B000009000208DF8060069461548FBF740FD72
:1058C0007CBD30B585B0044625462846FFF718FE56
:1058D0006A4600212846FFF7BFFE04906A46012170
:1058E0002846FFF7B9FE0390049805F0E0F902900E
:1058F000039805F0DCF9019002A901A8FFF7FFFE6B
:10590000019805B030BD00008C000020000002406E
:10591000000C02402DE9F04704460F460026B14630
:10592000B04626E017F8085006EB4601601C00EB75
:1059300041124846411C01F0FF091554BAF10D0F00
:1059400013D10A2D11D1B9F1020F02D14FF0000984
:105950000DE0002106EB4602601C00EB4212A9F1AB
:1059600002001154701CC6B28946AA4600BF08F155
:105970000108384604F02CFF4045D3D8002106EB3F
:105980004602601C00EB421001700020BDE8F08769
:1059900010B540F22551F248FEF7D3FA28B3F0488B
:1059A000FEF70DFAC4B2EF48008800F40040E0B9F9
:1059B000EC48008860B9EB48008800210180012292
:1059C0001146E948FDF7F9FF0121E748FDF7E2FC40
:1059D000E4480088B0F5007F08D2E24801880088DA
:1059E000401CE04A1080E148445405E0DD4800884E
:1059F00040F40040DB49088010BD00B5ADF2044D15
:105A0000D848008800F40040B0F5004F27D10622A6
:105A1000D7A1D648801C04F0E2FE00BB0020D1498B
:105A2000088056208DF8040200208DF80502CF482A
:105A3000C07B3038C0B28DF8060200208DF8070216
:105A400003208DF808024FF4007101A804F0A3FEB2
:105A500001A981A800F021FD01A800F089FA0DF24A
:105A6000044D00BD1FB501210420FCF767F940F685
:105A7000B730029040F67F40ADF804000020ADF84A
:105A80000C00ADF8060001A9B748FDF709FC01219B
:105A9000B548FDF7BAFF4FF4C060FAF747FB1E2088
:105AA0008DF8000001208DF8010000208DF8020023
:105AB00001208DF803006846FAF73DFB1FBD10B5C5
:105AC0000121A948FDF790FF002835D00121A64803
:105AD000FDF79BFFA3480088C0F30E0060B3A14808
